:020000041000EA
:1000000000B5324B212058609868022188439860DF
:10001000D860186158612E4B002199600221596106
:100020000121F02299502B49196001219960352056
:1000300000F044F80222904214D00621196600F024
:1000400034F8196E01211966002018661A6600F04E
:100050002CF8196E196E196E052000F02FF8012189
:100060000842F9D1002199601B49196000215960AB
:100070001A491B48016001219960EB211966A021F2
:10008000196600F012F800219960164914480160C1
:100090000121996001BC002800D000471248134993
:1000A000086003C880F30888084703B5996A0420EC
:1000B0000142FBD001200142F8D103BD02B5186610
:1000C0001866FFF7F2FF186E186E02BD00000240BE
:1000D000000000180000070000035F00212200005C
:1000E000F4000018222000A00001001008ED00E03C
:1000F00000000000000000000000000074B24E7A12
:1001000000200420F7010010CB010010CD010010E9
:10011000C9010010C9010010C9010010C901001077
:10012000C9010010C9010010C9010010CF01001061
:10013000C9010010C9010010D1010010D301001045
:10014000C1010010C1010010C1010010C101001067
:10015000C1010010C1010010C1010010C101001057
:10016000C1010010C1010010C1010010C101001047
:10017000C1010010C1010010C1010010C101001037
:10018000C1010010C1010010C1010010C101001027
:10019000C1010010C1010010C1010010C101001017
:1001A000C1010010C1010010C1010010C101001007
:1001B000C1010010C1010010C1010010C1010010F7
:1001C000EFF30580103800BE00BE00BE00BE00BECA
:1001D00000BE00BEF2EB88711051051030510510C1
:1001E0003802001090A31AE71E481F49086006C88D
:1001F00081F3088810471D480068002801D019487D
:10020000F3E70DA40ECC002902D000F012F8F9E7B4
:100210001749184A002000E001C19142FCD116495B
:100220008847164988471649884700BEFDE701C937
:1002300001C29A42FBD3704730510510E000002004
:1002400088180020D8680510000004200000042051
:10025000D8680510001004200010042000000000E1
:10026000704700000000000008ED00E0000000D032
:1002700088180020ACE400208D4E0010ED02001024
:10028000854E0010F8B5C04606480749091A8B107C
:10029000C90FC91810B5491003D0044B002B00D06A
:1002A000984710BD88180020881800200000000022
:1002B000054B10B5002B03D00449054800E000BFF2
:1002C000FFF7E2FF10BDC04600000000F0D20020A2
:1002D0004CA201100122014B1A70704798E40020D3
:1002E0000122014B1A70704799E40020F8B5DE46F0
:1002F00057464E464546E0B504F0F2FEFA2080002F
:1003000002F080F800F028F9152000F04BFB0520E2
:100310004E4900F0C5FA1E204D4900F0D9F812F000
:10032000CBFE002803D04B4800F004FAFEE712F0A1
:1003300059FE494B49494A4A4A4812F061FE4A4A25
:100340004A484B4900F010FC00F0BEF9494802F061
:1003500059F8494B494D9946494B4A4C98464A4BA6
:100360009B4600239A4622E04B4652461A702A705A
:100370002378092B1FD8237815200133237000F030
:1003800061FB00F0CFF8267800F0D2F80100F0B25F
:1003900000F01CFC434622781B78092A0DD9002B5B
:1003A0003ED02B7812F07CFE642002F02BF84B46F6
:1003B0001B78002BD8D143461B782A78002A08D016
:1003C000002BEFD1152000F00BFB00F05BF943464A
:1003D0001B78002BE6D1267800F0AAF82A780100D5
:1003E000D2B2F0B200F0E8F843461B78002BD9D126
:1003F0005B46C0CB02F0A8F9801BB941002903DCA1
:10040000D0D1224B9842CDD9267800F091F8010046
:10041000F0B200F0DBFB02F097F95B4603C3C1E7E3
:1004200001234246137000F091F8152000F03CFBC8
:1004300000F0A0F920780021C0B200F0C7FB12F054
:100440002FFE642001F0DEFFF9E7C046E102001054
:10045000D502001050A20110102700005CA201106C
:10046000040040006CA201107CA2011094A20110B3
:100470005B0700008813000099E4002098E4002046
:100480009BE400209AE40020481C0020008793038E
:100490000B4B10B51B78D9B2002B0ED1094B1A6843
:1004A00001321A60084A18681268904205D3196030
:1004B000064B1B68002B00D09847012010BDC0469A
:1004C000A4E4002020E3002018E30020FCE2002048
:1004D00010B5002403010C4A1B1A9B0084B0136062
:1004E0000A4B19600A4B1C600A4B1C7001F022FE7B
:1004F000094B0A4A02930A4B01940093002302F02D
:100500007FF804B010BDC04618E30020FCE20020D4
:1005100020E30020A4E40020281B002040420F001C
:10052000910400100022014B1A60704720E3002064
:10053000044B054A1B68116800208B4201D91068E2
:10054000181A704718E3002020E300200122014B15
:100550001A707047A4E4002030B5144D83B0280011
:10056000134917F0CDFC03210E2000F0A1FE03215A
:100570000F2000F09DFE002201210E2000F0B0FEB1
:10058000002201210F2000F0ABFE0A4C3C23402248
:1005900080212000009500F0EDFB200000F082FC9F
:1005A000200000F0BDFC03B030BDC0465812002052
:1005B000801A060004E30020F0B5CE464746C82363
:1005C00080B54343294C8BB00600200017008846B5
:1005D000994600F067FC264B002200212000009382
:1005E000012300F067FC0A2302AD2021214A009379
:1005F0002800330004F0EEFB01231022002120002C
:10060000009500F057FC002F1CD01B4B00932000DE
:1006100001232022002100F04DFC4B462021280020
:10062000164A04F0D7FB0123302200212000009558
:1006300000F040FC200000F073FC0BB0C0BCB946D9
:10064000B046F0BD47463C21380002F0E5FB3C21B6
:100650008046380002F0E0FB43460091280020214C
:10066000074A04F0B7FB0095D1E7C04604E3002039
:10067000A8A20110B8A20110C8A20110F0A2011096
:10068000D8A2011010B50D4C82B0200000F00AFC79
:100690000B4B200000930A2202230A2100F00AFCDF
:1006A000084B2822002120000093012300F002FCC7
:1006B000200000F035FC02B010BDC04604E300206D
:1006C00000A301100CA3011010B5154C82B020003E
:1006D00000F0E8FB134B20000093002201230021CF
:1006E00000F0E8FB104B20000093142201230021AE
:1006F00000F0E0FB0D4B200000932022022300219C
:1007000000F0D8FB0A4B3422002120000093012383
:1007100000F0D0FB200000F003FC02B010BDC0468A
:1007200004E3002028A301103CA3011048A30110FA
:1007300054A3011030B505000C4C83B0200000F02C
:10074000B1FB0B4B2000009314220123002100F089
:10075000B1FB0123242200212000009500F0AAFB18
:10076000200000F0DDFB03B030BDC04604E30020F4
:1007700064A30110F0B5C6462E4B0325984600B57C
:100780002D4C2E4E2E4F82B0200000F08BFB02230A
:100790000A2205212000009600F08CFB4346282207
:1007A000002120000093012300F084FB0123342268
:1007B00000212000009700F07DFB200000F0B0FB3E
:1007C000C820400001F01EFE200000F06BFB20005E
:1007D00000F0A6FB013DC82001F014FE002DD3D18E
:1007E000200000F05FFB200002230022052100967C
:1007F00000F060FB134B2000009316220123002120
:1008000000F058FB104B200000932422012300210C
:1008100000F050FB0D4B34220021200000930123F7
:1008200000F048FB200000F07BFB02B080BCB84623
:10083000F0BDC04678A3011004E300206CA30110B2
:1008400088A3011098A30110B0A30110C4A3011044
:1008500070B5040001F078FF0D4B1B68A34200D077
:1008600070BD04000D000B4B9C460CCBA41A9D419F
:10087000002D07DD634603C3074B1B68002BEFD039
:100880009847EDE7002DEBD1044B9C42E8D9F1E706
:100890001CE30020401B0020F8E20020400D030074
:1008A0000E4B10B518600E4B0400196001F04CFFA0
:1008B0000C4B03C3200000F0E9FD0123D022A3402C
:1008C0001206200093620121002200F009FD01229E
:1008D00004212000044B00F051FD10BD1CE300205A
:1008E000F8E20020401B002051080010F8B50E006F
:1008F00043081F2841D807251D4001240440052036
:1009000002F022F810223103814217D802F084FA53
:1009100002F03AFE071C02F05FFEC6B2300002F0A1
:1009200039FE011C381C02F00EFE8321C90502F0BD
:1009300024FE02F051FE3301C2B21A43AB00134948
:100940005B199B0059184A60114A0A61114A9A18AA
:10095000002C16D180241049240110686040014009
:100960008020400112181160084A9A18116801226B
:100970008A430A495B181A60F8BD03251D400835F3
:10098000BBE7802406492405E7E7C0460000054090
:10099000FF0F00000C000540FFFF000000100540A5
:1009A0000000FFFF10B50400042100F081FC630883
:1009B0001F2C0DD807221A4093009B18064A9B0053
:1009C0009A18116801220A4004495B181A6010BD88
:1009D00003221A400832EFE70000054000100540EE
:1009E000FA21F8B589000500FFF780FFFA204000E2
:1009F00001F008FD6A081F2D1CD8072313400126AB
:100A00009C00E4180D4BA400E7183B680C4A3340E7
:100A1000A4182360C82001F0F5FCFA212800890001
:100A2000FFF764FFFA20400001F0ECFC3B681E4039
:100A30002660F8BD032313400833E0E700000540BB
:100A400000100540F8B505001349FFF74FFF962049
:100A500001F0D8FC6A081F2D1AD80723134001267D
:100A60009C00E4180D4BA400E7183B680C4A334087
:100A7000A4182360502001F0C5FC28000949FFF7A5
:100A800035FF962001F0BEFC3B681E402660F8BD95
:100A9000032313400833E2E7DC05000000000540B3
:100AA00000100540A4060000F0B5C646804600B51B
:100AB000A8B0A0226846284902F0EAFD43466C46E9
:100AC0005A081F2B26D90323134008339D00ED1825
:100AD000224BAD00EF18224B0126ED180FE03B68CA
:100AE00033402B60606801F08DFC3B681E20334072
:100AF0002B6001F087FC083428ABA34206D02168A4
:100B00000029ECD04046FFF7F1FEEBE728B080BCAF
:100B1000B846F0BD072313409D00ED180F4BAD0004
:100B2000EF180F4B0126ED180FE03B6833402B60A8
:100B3000606801F067FC3B681E2033402B6001F0C9
:100B400061FC083428AB9C42E0D021680029ECD03D
:100B50004046FFF7CBFEEBE7D8CF01100000054081
:100B6000001005407047C04670B5144B8AB00500B0
:100B70000E001A6018F0FCF8114C206000280FD00D
:100B80001822002104A802F07DFD0E4B6A46039353
:100B90003C23280002A9138311F056FE002801D13E
:100BA0000AB070BD03AA206801920022064B009291
:100BB00002A9320018F0E4F8F2E7C04624E300206E
:100BC00000E30020D8A30110650B001070B5134C92
:100BD000060020680D00A4B0002803D018F038FDEE
:100BE000002801D124B070BDC823734380210C4A72
:100BF00000930195330004A804F0ECF804A819F060
:100C000005F9084A83B21168002220680392029213
:100C10000192009204AA17F0FDFEE3E700E3002032
:100C2000F0A3011024E30020F0B54E464546DE4611
:100C30005746E0B58FB018AC20CC9446267807957F
:100C40002C006D78002D00D18DE0277807243C40E2
:100C5000621E9441A046FF08B8444446002C00D1CF
:100C600081E00122914606325918DC00674692461F
:100C7000424609948846002419002B00013F08923F
:100C8000079A0C96D5780022751B5D43089B2D1999
:100C90005D43434605355B1A0A954D469B466D1AE2
:100CA00004955D460E007B1805950B940D970A99E7
:100CB000079C06926418A15C1F000A0008253100F9
:100CC00005E0013DEDB252087F18002D38D04C46AA
:100CD0001442F6D00029F4D08C4641469846049C34
:100CE0000292E619059C0395037832008B46A342D5
:100CF00017D9417891420ED95546D1084B43C16866
:100D00001540019129004D468D4001991B19C95C80
:100D10000D430199CD54BA4203D003780132A34266
:100D2000E7D8013459465C45DED16146039D029AFD
:100D3000013DEDB243465208D8467F18002DC6D17A
:100D40000E000999069A5B18089901329142AED1BA
:100D500031000B9C079B01345B78E2B20D9F0C9E27
:100D600088449A428CD30FB0F0BCBB46B246A94629
:100D7000A046F0BDF0B5DE4657464E4645469A467B
:100D8000E0B58BB0149B42709B461500D3085246C9
:100D9000C2705A468370060001704260FF20034013
:100DA00008405843306101300F0002F051FCF06000
:100DB000002866D0344B03AC03936B1E2371D323FE
:100DC00063718023DB01E3808D232372337A01304A
:100DD000F0606D00002B48D11423BD424BDB122183
:100DE000F1226372294B25276381DA2323735A3B4F
:100DF000FF3BE3815933FF332374254B61736382D7
:100E0000244B6274089300232376234B6F44984647
:100E1000224B02AD99460CE0013003D141462048F7
:100E200004F02EFA0134A74217D073689B46F3787A
:100E30009A46002322782B706A70514600932A004C
:100E40000233584617F084F8831CE5D141464846E2
:100E5000013404F015FAA742E7D101200BB0F0BC31
:100E6000BB46B246A946A046F0BD1023BD4205DBF5
:100E700012212222B5E70221F122B2E70221222229
:100E8000AFE73061EAE7C046AED580A8A1C8FFFF52
:100E9000DB300000A4A6AF2024A4011054A401104C
:100EA00034A40110030010B50021C0681A6902F0D3
:100EB000E9FB10BDF0B54F464646D646C0B582B0F8
:100EC0000A9C1F00237880469146002B1FD0134AAE
:100ED0007E0092461A00F619203A0D007600013481
:100EE0005E2A11D8019353464A46009329003B00DD
:100EF0004046FFF799FE2378002B08D01A00203ACD
:100F0000AD1901345E2AEDD92378002BF6D102B059
:100F1000E0BCBA46B146A846F0BDC04678D0011044
:100F2000F0B5CE464746212380B5027887B004ACA1
:100F30002380531EA3702223E37000232371837840
:100F40000500013B6371402A03D1202363703F33C6
:100F5000A3701627224B6F449846224B03AE994646
:100F600008E0013003D141461F4804F089F90134FB
:100F7000BC4213D00023227833707270E97868681D
:100F800032000093023316F0E3FF831CE9D141469F
:100F90004846013404F074F9BC42EBD140220024ED
:100FA000EB68013B1A702B69EA68E97868680133DD
:100FB000013A009416F0CCFF831C0BD0013004D012
:100FC00007B0C0BCB946B046F0BD0849064804F0B9
:100FD00057F9F5E70549034804F052F9F0E7C04630
:100FE00024A4011054A4011034A4011064A401101D
:100FF000D0231B061B68F0B5A94ADE464E4645467F
:1010000057469900884651585A4253412F22E0B51D
:101010005B429343A34A83B09B189B4600260191F1
:10102000002939D0A04B0F279A465A46F3080833B7
:101030009B009D580123340099460836002D22D08C
:10104000390029402D0900291AD0534642469A58A2
:101050002300E240203BDB1713404A4613420DD1E8
:10106000072208002240920090400200E3088F48C7
:101070003C339B001A502000019B9847002D02D062
:101080000134B442DCD3202ECFD103B0F0BCBB4638
:10109000B246A946A046F0BD0F23834A0192CC0870
:1010A000220058460F000832920012580837002AD2
:1010B00000D1CDE0180010408446100913421AD028
:1010C0004546019E7559AA4620256D42A946894488
:1010D0004D46ED17A9465546CD402E004D463540AC
:1010E0000126354204D16646704D3C34A400665159
:1010F000002800D1ACE01C000440A446140A0342BE
:1011000019D0481C81464046019D4E46285805008E
:101110000800F5401F38C01728400125284207D194
:1011200065462D01F0082E003C30604D8000465190
:10113000002C00D18CE0180020408446100B234284
:1011400011D08C1CA1464446019D4E462C592500C9
:101150000C00F5401E3CE4172C4001252C4200D128
:1011600081E0002874D01C000440A446140C034203
:1011700010D0C81C81464046019D4E4628580500A7
:101180000800F5401D38C01728400125284273D0BB
:10119000002C5DD0180020408146100D23420ED057
:1011A0000C1DA4464546404C64596546EC4025005C
:1011B0000C001C3CE40F2C4267D0002848D01C00D7
:1011C0000440A446140E034217D0481D81464546EC
:1011D000354840594D46E840050008001B38C00F0F
:1011E000284208D1654648462D052E00C0082F4DDF
:1011F0003C3080004651002C2AD018002040844604
:10120000120F234229D0454627488C1D824640595B
:10121000E040050008001A38C00F284206D1E00857
:101220006446224D3C302406800044510731002A98
:101230000ED05046444604590800CC402038C00F18
:10124000204205D1C90819483C31120789000A50CB
:10125000202F00D119E7390021E7002AF8D01248E1
:1012600007318246E5E765462D02F4082E003C343E
:101270000E4DA400665174E765462D03F0082E005C
:101280003C300A4D8000465182E74D4664462D04AD
:101290002E00E408054D3C34A40066518DE7C0469D
:1012A000B824002030410140DCE200200040014031
:1012B00010B54024074A83009A181268C0005440B1
:1012C000C0222240044C1B191A60044BC018416014
:1012D00010BDC04604C0014004D0014000400140A0
:1012E000064B8000C3181B68C90092000A435A408D
:1012F0000C231340024A80180360704704C0014069
:1013000004D001408000002904D0054BC0180223FE
:1013100003607047034BC01802230360F9E7C0461F
:1013200004E0014004F00140D0231B061B6810B507
:1013300014005A4253412F225B4293430D4A9B189B
:10134000C2089446072210406246800081403C3229
:10135000094892001150604680001B18002C04D0F0
:10136000802292019B18196010BDC02292019B1827
:101370001960F9E73041014000400140F0B54F46A7
:101380004646D646C0B5D0273F0688469A4619003D
:101390003B68224E9D00914672590400002A2DD0D0
:1013A000002935D0524672515A4253412F225B4296
:1013B00093431B4A40469B180722224092009040CC
:1013C000E1080200080089005B184946154C3C30D2
:1013D0008000025100290CD0802189015B180D206A
:1013E00001211A6000F07EF9E0BCBA46B146A84679
:1013F000F0BDC02189015B181A60F5E70029D3D040
:10140000715100220D20084900F0CCF93B68CBE770
:101410000D20054900F0ACFA3B68C3E7B824002072
:101420003041014000400140F10F0010F0B5D026DE
:10143000C646360633680C4D9B009046EA580400B9
:101440000F0000B5104209D1390014430D20424667
:10145000EC5000F0A7F980BCB846F0BD01F082FB6B
:1014600033689B00EA58EFE7DCE2002010B5040087
:101470000D2000F07DFAD0231B061B6802499B005B
:101480005A58A2435A5010BDDCE200200123D0225A
:101490008340120693629361084A83009A18116888
:1014A0004022514080320A400549C0005B181A6052
:1014B000044BC018052343607047C04604C0014078
:1014C00004D00140004001408023DB051868000F74
:1014D0007047C0460FB400B5084883B003F04EFE15
:1014E000049B002B07D005A91800019103F096FC7E
:1014F000034803F043FE012003F0A8FC74A401108C
:1015000094C90110EFF3108072B6034A1368002BE0
:10151000FCD0BFF35F8F70472C0100D0BFF35F8F0B
:101520000022024B1A6080F3108870472C0100D013
:1015300070B58C461600EFF3108472B60F490B6835
:10154000002BFCD0BFF35F8F6346DB08C518072272
:10155000C05C63461A40012393401A0002400342D4
:1015600007D118432870BFF35F8F0A6084F3108897
:1015700070BD61463000FFF7ADFFC0462C0100D0C2
:10158000F8B5CE4647468C4680B51C00EFF3108870
:1015900072B61C490B68002BFCD0BFF35F8FA242D0
:1015A00021D80723994602E00132944218D34946D4
:1015B000012611408E40D308C718C35C1E42F3D1E8
:1015C000100033433B70BFF35F8F00220D4B1A6056
:1015D00088F3108800280EDBC0BCB946B046F8BDC1
:1015E00001204042EFE7BFF35F8F00230B6088F3D9
:1015F0001088012040426346002BEDD00898FFF789
:1016000069FFC0462C0100D010B584460A00EFF3F4
:10161000108472B60B490B68002BFCD0BFF35F8FB0
:101620000723D008134001229A4063461B5C934372
:1016300062461354BFF35F8F00230B6084F310885E
:1016400010BDC0462C0100D0044A1078431CDBB208
:10165000172B00D9102313707047C0463811002093
:1016600000B5054B83B00100009318221F230348E7
:10167000FFF786FF03B000BD84A40110C82400203A
:101680000021044B044ABFF35F8F02C39342FAD197
:101690007047C046000100D0800100D0084B094AC5
:1016A0001360094A1360094A1360094A1360094A22
:1016B0001360094A1360094A1360094A13607047AE
:1016C0008080808000E400E004E400E008E400E0C2
:1016D0000CE400E010E400E014E400E018E400E0B2
:1016E0001CE400E01F2318401E3B8340002905D066
:1016F000C021044A490053501360704780220149B9
:101700008B50FAE700E100E001228240034B1B68A6
:1017100013405A1E9341D8B27047C04600E100E022
:1017200001238340014A13607047C04600E200E095
:10173000054B10309B688000C358044A00209B1A58
:101740002F229A424041704700ED00E03C110020FA
:1017500070B50D00EFF3108672B60F4A1368002BB8
:10176000FCD0BFF35F8F0D4B10309B6884001B597A
:101770000B4A934203D09D4201D001F0F3F9074B8D
:101780009B681D51BFF35F8FBFF35F8F0022024B39
:101790001A6086F3108870BD240100D000ED00E0CF
:1017A000C1010010F0B5DE4657464E464546E0B54D
:1017B000824683B08B461700EFF3108872B6604AFA
:1017C0001368002BFCD0BFF35F8F00255D4B5D5786
:1017D0009946002D00DA9AE04A466B005A4C5E1991
:1017E000B6000193A31900939B791370574B9A6825
:1017F000534610339B00D15899460B1B2F2B32D9DF
:10180000534B994200D098E0019B0236ED18514BA2
:10181000AD006353504BA619043B9B1B4F4A1B055D
:101820005B0D651913436B804D4B0121AB80FF238A
:10183000AB715B46AB60009BEF710B4319004A46EE
:10184000424B9B689950BFF35F8FBFF35F8F0022BD
:101850003B4B1A6088F3108803B0F0BCBB46B2461D
:10186000A946A046F0BD01200A008243D379B446C0
:10187000BB422DD83B4BB51C190013001B1B5B4111
:101880005943090D8C46334B6519A353324B0099CC
:10189000043B5B1B1B05314D5B0D2B4304364B801A
:1018A000A619131F9B1B1B055B0D1D4363468B7104
:1018B0005B468B602C4B8D80CF7113600143BEE77C
:1018C0005800C01880002018C679BE4225D90200F1
:1018D0000623D356002BF3DA9A46131D9C46234861
:1018E0006346009E9571043EF61A36051B4B760D35
:1018F0001E43019B96805A1953469200A418A37167
:101900005B46194AA0802260E771A36097E701F067
:1019100029F900254B465D575EE766469A46131D3A
:101920009C469088043640050015A6196044801B2B
:1019300000050A4E400D3043D2E701F013F963E78A
:10194000240100D09CE400203C11002000ED00E0C8
:10195000C101001000A1FFFF6C11002000E0FFFF9B
:1019600001BDFFFFAAAA00000148804701BD000099
:10197000F0B54546DE4657464E46E0B50D0083B00D
:10198000EFF3108872B6604A1368002BFCD0BFF3E7
:101990005F8F5E4B5E499A68030010339F00D459F5
:1019A00099468C423ED0AC424FD05A4EA21B2F2AB1
:1019B00038D8594B1A689C461300012282401340C4
:1019C0001F22024001209A469040634680228346AF
:1019D0009850BFF35F8FEFF305830193002B36D050
:1019E000994501D001F0BEF8012322009A43906886
:1019F000854208D176E04B005B189B00F31898688D
:101A0000854236D01A00062151560029F3DA854264
:101A100054D05346002B27D0C02259463E4B52008B
:101A200099501960394B9B68DC51BFF35F8FBFF34E
:101A30005F8F0022344B1A6088F3108803B0F0BC2B
:101A4000BB46B246A946A046F0BD0C00EAE722001C
:101A500001339A4390688542D5D106201056130071
:101A600000280ADA0C0031E0802359462A4AD15076
:101A7000D8E706201856002821DB420011188900FB
:101A800075188946A9689960E979D971062169565E
:101A90009971002924DBAD88F11A6D052D154D448F
:101AA000491909051D4D490D2943998013181C4AF0
:101AB0009B001178F31899711070AAE7130001992F
:101AC000002914D1FF3191711649918014490A7887
:101AD0009A71154A9B1B5B415A43120D0A7098E795
:101AE0001049E2E70620105613000028C5DA0F4A15
:101AF0000F49D21A083A5002400D014399800D490E
:101B000052080A43DA8084E7240100D000ED00E0A7
:101B1000C10100103C11002000E100E000E0FFFFE7
:101B20009CE4002001BDFFFFAAAA0000761100205E
:101B300000F0FFFF00F8FFFF084A83089B009B1896
:101B40001A6810B5140003221040C000FC32824015
:101B50009443220081400A431A6010BD00E400E073
:101B60000123034370B59C46EFF30581EFF3108525
:101B700072B6214A1368002BFCD0BFF35F8F1F4B56
:101B800004001F4AE41A64416243120D1D4C89008F
:101B9000A66852B2765866451CD006215956914225
:101BA0001CD012215956914222D01E2159569142E1
:101BB00020D02A2159560324914210D0124B197873
:101BC0001A708171BFF35F8F00220B4B1A6085F38F
:101BD000108870BDA3680D4C5C50EFE700246100D5
:101BE000091989005B18FF21997109499980E5E776
:101BF0000124F4E70224F2E7240100D03C11002084
:101C0000AAAA000000ED00E09CE40020C101001041
:101C100001BDFFFF1F2110B5091A0248FFF7F4FCB0
:101C200010BDC046A8E4002000B5074B83B00100FA
:101C30000093002205230548FFF7A2FC002801DBE2
:101C40001F23181A03B000BDA0A40110A8E40020AF
:101C500070B504000E001500FFF7F6FC010020002F
:101C600000F006F8A680E580BFF35F8F70BDC04628
:101C7000024BC918890001607047C046400000341B
:101C800070B5114C114DAC420FD2FF262368002BCA
:101C90000CD0FFF7D9FC01002000FFF7E9FFA68078
:101CA000BFF35F8F0834AC42F0D370BDFFF7CCFCBC
:101CB00001002000FFF7DCFF2671BFF35F8F0834BF
:101CC000AC42E3D3F1E7C04680180020881800201A
:101CD00010B50400FFF7B8FC01002000FFF7C8FFB3
:101CE000FF232371BFF35F8F10BDC04610B5040002
:101CF000FFF7AAFC01002000FFF7BAFFFF23A38033
:101D0000BFF35F8F10BDC04610B504000120FFF780
:101D1000A7FC034BC01880002060BFF35F8F10BD8D
:101D200040000034034BC91889000160BFF35F8F86
:101D30007047C046400000340A4B1968EFF310802A
:101D400072B60A68002AFCD0BFF35F8F1B68BFF32E
:101D50005F8F00221A6080F3108840BF00200021AE
:101D60007047C04630E40020F0B5DE4657464E4688
:101D70004546E0B585B0EFF3058303221A40B34B27
:101D800091005F58012393409B4602925A46884631
:101D9000AF4B1A60AF4B03935B46AF4843630823D6
:101DA000FE5E002E37DABB881BB2002B00DBA4E0FE
:101DB000BB79002B00D0E5E00823F95E002920DB89
:101DC0004B007A695B18DB00D3189D68DC686B1CDC
:101DD00000D104E1A04801004144826A0B69AE1AB7
:101DE0009B1A9E4215D30123026A029883401A422D
:101DF0000FD0994800F0A0FC8C4202DCCCD1854287
:101E0000CAD940BF05B0F0BCBB46B246A946A04601
:101E1000F0BD0D61EDE77A69730091469B19DB0017
:101E200099444B469C68DD6800F086FC8D42BADC24
:101E300000D1F6E0002D00DADBE04A464B4652695D
:101E40001B699246039A934200D1CCE04A4608218E
:101E5000785E5288000451461043984700900191E3
:101E60000099019A0B00134300D1C2E013000A004D
:101E7000002B00DBD9E020002900801A99414B4655
:101E80009860D96000229B5E002B00DA8BE75D0032
:101E90007C69EA18D200A21800949468D268A2461D
:101EA0008A4200DD7FE702D1844200D97BE7082423
:101EB000A4463B81BC44009C00972F006546B44675
:101EC0003E0006E05E00F218D200A2189768D268C1
:101ED000BA468A4207DC00D1B4E0F318DB00E5180B
:101EE000E35E002BEEDA66464A46009F13802E80A2
:101EF000BB881BB2002B00DA5AE73A69EFF3108176
:101F000072B61368002BFCD0BFF35F8F0123BE882D
:101F10005B42BB8036B23B69BFF35F8F00221A6021
:101F200081F31088002E00DA42E73B0008333A00C4
:101F300099467D6973009B190824115FDB004846B0
:101F4000EB18002913DB9C680093A446DC6806E0CC
:101F5000A34240D00023F95E3800002906DB4F0081
:101F60007F18FF00EF19FB68A342F1DD009B06809C
:101F700000201E5E1980002EDCDA1700BB79002BD2
:101F800000D119E70023BB710823F95E4B1C00D177
:101F900037E73D000835AC467C6903E084464B1CBE
:101FA00000D109E74B005B18DB00E0180A00E15E96
:101FB00043881BB2002BF1DA01256D42EE178560D4
:101FC000C66008257B5F9342E9D0634619803B8950
:101FD00003803A81E3E7BB686345BBD9C6E7631C6E
:101FE00000D0F7E605E7534650461B69984700289E
:101FF00023D14B461B883A693B81EFF3108372B6BD
:1020000011680029FCD0BFF35F8F49467A880A80A7
:102010003A697E80BFF35F8F0021116083F31088DF
:10202000C1E6844200D805E7BDE60B4800F084FB1A
:10203000009B019CC018614121E753460CCB0092E4
:1020400001930DE7824500D847E74CE710D3002005
:102050003C700540691D00100040054070B52D4CD6
:102060002569002D04D00A212B48FFF701FE70BD21
:102070002A4E0321294800F055FBE660FFF7E4FAF9
:10208000274B0322C018D02322701B061B68012196
:102090006370244B8000A3600F23206102206380C3
:1020A00063694942A18019800231198647311D8335
:1020B000585218315A5275325C39995218320131DE
:1020C000995218320131995218320131995208351A
:1020D00018329D52023118329952183201319952F8
:1020E00018320131995218320131995218320131A6
:1020F00099521832013199520B4B0C49DC60013076
:102100003562FFF725FB01210320FFF7EBFA084BAF
:102110001D60A8E78411002030E400200040054045
:1021200040000034FFFF100010D30020691D001094
:10213000386005400048704784110020F8B51F0042
:1021400008AB1B7804001600002B07D100F0FCFA46
:1021500032003B00121A8B41002B51DB2269EFF356
:10216000108C72B61368002BFCD0BFF35F8F022374
:10217000E15E256900293ADB4B0060695B18DB00F2
:10218000C218C35A6380BFF35F8F00232B608CF3A8
:102190001088069B9660D7601361079B5361538834
:1021A00001335B045B0C181C002B1ED083B25080E3
:1021B000080418432569EFF3108672B62B68002BCC
:1021C000FCD0BFF35F8FA3881380A1802369BFF386
:1021D0005F8F00221A6086F31088237801329A40BC
:1021E0000849E3685B181A60F8BD0120DEE7BFF319
:1021F0005F8F00232B608CF3108801204042F3E7AF
:102200000020F1E73C20000070B582B000920193FD
:1022100001000269EFF3108472B61368002BFCD042
:10222000BFF35F8F0223C85E0D6900283FDB4A6958
:10223000430016001B18DB00D218F35A4B80BFF383
:102240005F8F00232B6084F31088069B1361079B2C
:102250005361009B019C9360D460538801335B04FD
:102260005B0C1D1C002B20D0ACB203045580234313
:102270000D69EFF3108C72B62C68002CFCD0BFF304
:102280005F8F8C88148088800A69BFF35F8F00207D
:1022900010608CF310880A7801309040CA680849B1
:1022A00052181060180002B070BD0125DCE7BFF3C2
:1022B0005F8F00232B6084F31088013BF2E7C04658
:1022C0003C20000010B543890A1493421ADD5300E4
:1022D0009B184269DB00D3180469EFF3108C72B6C7
:1022E0002268002AFCD0BFF35F8F5A88090494B299
:1022F000090C8A4208D00369BFF35F8F00221A607D
:102300008CF31088002010BD094A22435A80012313
:1023100002698371BFF35F8F002111608CF3108815
:10232000027804499340C268012052181360EAE71A
:102330000080FFFF3C20000040787047F0B50600A9
:102340000F0006246442E517A4197D4183B08D4235
:1023500012D80FD000F0F8F922002B00121A8B418E
:10236000002B13DC002B41D03000390000F0F6F9CF
:1023700003B0F0BD8442EDD90024002500F0E4F95B
:1023800022002B00121A8B41002BEBDD00F0DCF950
:1023900022002B00121A8B41002B0ADB0023019331
:1023A000144B2200009314482B00FFF72DFF01303F
:1023B000DAD02900114A1248536A994204D8956A22
:1023C000A542D1D29942CFD10568EFF3108C72B6F5
:1023D0002B68002BFCD0BFF35F8F0368BFF35F8FC8
:1023E00000251D608CF3108820BFE5E7002ABBD0D4
:1023F000CCE7C046391D0010841100200040054084
:1024000030E40020F0B5C64600B582B0040000F00C
:102410009BF9FA2206000F00200000230021920001
:1024200001F074F88019794104000D1E02DA0124CC
:102430002E4D644206267642F71736196F41AF4299
:1024400014D811D000F080F932003B00121A8B41F1
:10245000002B15DC002B46D02000290000F07EF96F
:1024600002B080BCB846F0BDA642EBD900260027DA
:1024700000F06AF932003B00121A8B41002BE9DDB3
:1024800000F062F932003B00121A8B41002B0ADB8C
:1024900000230193164B3200009316483B00FFF7D0
:1024A000B3FE0130D8D000233900B0469C46124A12
:1024B0001248536A994204D8966A4645CCD299424A
:1024C000CAD10668EFF3108772B63368002BFCD0D0
:1024D000BFF35F8F0368BFF35F8F66461E6087F3AD
:1024E000108820BFE5E7002AB6D0C9E7FFFFFF7FCD
:1024F000391D0010841100200040054030E4002008
:10250000F0B5CE46474680B504000D0085B0EFF328
:1025100005868946002E10D0364900204B6AAB4212
:1025200006D38A6A5B1B591E8B41A2424041184365
:1025300005B0C0BCB946B046F0BD2F4FFB683A7835
:1025400098461800039200F0F7F8039A131D4246CC
:102550009B009B5822001B1A9C462B00121A8B4191
:102560009E4210DC0DD020BF224A0020536A4B450A
:10257000DED3926A5B1B591E8B41A2424041184335
:10258000D6E79445EFD900F0DFF822002B00121AAD
:102590008B41002B1BDB00230193184B220000937F
:1025A00038002B00FFF730FE002810DD114B5A6A6F
:1025B0004A451CD39B6AA34217D301003800FFF79A
:1025C00081FE0C4A0020536A4B45B1D3D1E7094A3A
:1025D0000020536A4B45ABD30020926A5B1BA2429A
:1025E00040415A1E93411843A2E74A45E5D120BF16
:1025F000E3E7C0460040054084110020391D00106B
:10260000F0B5C646110000B582B004000A9D19431A
:1026100000D170E0D8170600564000960600010071
:102620005E400196009E019F361A8F4100960197E9
:1026300008996B60099B2A60AC6029616B6100F0AE
:1026400083F82269EFF3108872B61368002BFCD070
:10265000BFF35F8F0222A35E22699C461700002B06
:1026600051DB62695B0016006344DB00D218F35A49
:102670006380BFF35F8F00233B6088F31088009E68
:10268000019F36184F41244B3000136155613B1EAA
:1026900002DA0120214B4042D3605388906001331D
:1026A0005B045B0C191C002B2BD0634688B21B0407
:1026B000034351802069EFF3108672B60168002948
:1026C000FCD0BFF35F8FA18811806246A28022698F
:1026D000BFF35F8F0021116086F3108822780131EB
:1026E00091400F48E268121801201160EB6002B0BF
:1026F00080BCB846F0BD0023012200920193002364
:1027000096E70121D1E7BFF35F8F0023136088F3C1
:1027100010880020013BE9E7691D0010FFFFFF7FE3
:102720003C20000010B5024A0248FEF701FF10BD30
:10273000BCA40110CC2400200300416A0A00986A5E
:10274000596A8A42FAD17047034B596A0A00986A5B
:10275000596A9142FAD1704700400540064A536ACF
:102760009942FCD807D1044B02E05A6A914202D147
:102770009A6A9042F9D8704700400540F8B5DE46A5
:102780004E4645465746E0B505008B4618000A9967
:10279000914600F041FB0A9B6C001E026419304B0D
:1027A000A400E418636880469E4200D966602F1F2B
:1027B000FBB29A46012B2FD9C0238022294FAD00AE
:1027C0009B0179591201E3181A6000291BD14B466D
:1027D00022685B015340E022134080225201A2187C
:1027E00013605346012B2FD9802380229B01E318CD
:1027F00012011A60434666607B51F0BCBB46B2468C
:10280000A946A046F8BD786900F006FB01304300F8
:102810001B18033BFDD2DAE75B46012BCCD1C0236A
:1028200003229B01E3181A60023AA3681A42FCD003
:102830004A46236852015A40E02313408022520145
:10284000A218084F1360AD00584603232168414089
:102850000B40136001228240A3681A42FCD0C3E7F8
:1028600000800040D4240020F0B5D6464F464646AE
:10287000440098462418324BA400E41863688A4642
:102880009146C0B5FF2B02D880235B006360061F12
:10289000F6B2012E2FD9C02380222A4F85009B013A
:1028A00079591201E3181A6000291BD14B4622689E
:1028B0005B015340E022134080225201A2181360B2
:1028C000012E30D9802380229B01E31812011A6067
:1028D00080235B00636043467B51E0BCBA46B1464F
:1028E000A846F0BD786900F097FA013043001B1844
:1028F000033BFDD2DAE75346012BCCD1C0230322A0
:102900009B01E3181A60023AA3681A42FCD04A46B7
:10291000236852015A40E023134080225201A2183A
:10292000084F1360850050460323216841400B4047
:10293000136001228240A3681A42FCD0C2E7C0465D
:1029400000800040D4240020014B8000C058704714
:10295000D4240020F0B5C646040000B52348160074
:1029600098460D0000F058FA0100300000F054FACB
:102970004346069A1B04120313439C462368060031
:10298000002B22DB1A4B1B48E218531E9A4180236E
:102990005242120B9B011203D218174B1A60174BAD
:1029A0001A60130001688B43FBD12122144B256070
:1029B000E318A6601A602268002AFCDA6246E26028
:1029C00008221A6080BCB846F0BD3F23226813403D
:1029D000AB42D7D1A3681B051B0D8342D2D1EE2297
:1029E000E368D20213406345CCD1EBE7001BB7008C
:1029F0000040FDBF08C0004000E0004000F0004083
:102A00000430000010B580241C4BE4051C60002835
:102A10001AD001231A4C18431A4BDC611A4C44405B
:102A20001C62596298628021144BC90519601748CD
:102A300017490860E021C9041960002A07D18022E3
:102A4000144B12061A6010BD0E4BD861EBE7530110
:102A50009B1A9B009A18802312015B049A4209D2A8
:102A600013000D490B60074B5A608022094BD205B9
:102A70001A60E8E7094B1A00F3E7C04600B00540CA
:102A8000D3C007B0008005402D3FF84FFCFF010088
:102A90000820014000A00540F0370020FFFFFF00A4
:102AA0008023024A9B000B43D3627047008005409D
:102AB000002310B50100988A1B8B984710BDC046B3
:102AC000162310B5010018885B88984710BDC046D2
:102AD000F8B54746CE4680B50F1E18D01423994648
:102AE000043304000025012698464B4618884346C7
:102AF00021681B88984701C4431E98410135064050
:102B0000AF42F2D13000C0BCB946B046F8BD012694
:102B1000F8E7C046002370B504000D00988A054907
:102B20001B8B984703000020002C01DB0130A040E4
:102B30002900984755420000AA23064A1B0113604A
:102B40008D235B00D3600449044B19605368002B4C
:102B5000FCDA70470040024000B0FA00006002401A
:102B60007047C04610B50148FEF7B4FCE0A4011060
:102B700070B5074D074EB54209D20024013E761BC1
:102B8000B608013608CD01349847B442FAD170BD79
:102B900008A2011044A20110054B064A06491A601A
:102BA000064A074B1A6010000B689843FBD1704728
:102BB00000E00040BFCDFBFE08C00040FE7F3C00AF
:102BC00000F00040044BDB6C002B03D18022034B50
:102BD000D2021A607047C046000011504C201150BC
:102BE000044A054B1A60054A1368DB018033FBD1A8
:102BF0007047C046FFFFFF0100F0004008C00040E2
:102C00004022034B9A675A671A67DA667047C046D4
:102C100000F0014010B5FEF733FD10BD70B5284936
:102C2000284D294E6D1AAC102200302C00D93022CC
:102C30003000920000F02CFDBC2D3DD823002A3B33
:102C4000224A052B1DD9302075196D07A446001B9B
:102C5000EB0F002D03DA611C8C46A1007250C01AE4
:102C6000E3189B004108F318C900C9181A605A609C
:102C700008339942FAD1012303421DD0984360449E
:102C80000400A300F250631C2F2C15D09B00F250BF
:102C9000A31C2E2C10D09B00F250E31C2D2C0BD02B
:102CA0009B00F250231D2C2C06D09B00F250631D7C
:102CB0002B2C01D09B00F250054B9E6070BDC0468E
:102CC00000010010C001001000000020C101001030
:102CD00000ED00E0002310B5294C82B0A367FFF798
:102CE0002BFF0122274B1A60636C012BFCD10322BE
:102CF000254B1A60224A936B012BFCD101330093C0
:102D00000121224A22480433FFF724FE0523012132
:102D10000093204A2048FFF71DFE002202210420D4
:102D20001E4BFFF7A1FD0022012105201C4BFFF7E0
:102D30009BFD0022002107201A4BFFF795FD002282
:102D400000210820174BFFF78FFD8023DB00009345
:102D5000002200210920134BFFF710FD0022104B29
:102D600000210620FFF780FD0420FFF7EDFD0E494E
:102D700000F052F801000020FFF792FE02B010BDF3
:102D8000008000403CB0004030B00040002F685947
:102D900000800240008C864700C00240001BB70044
:102DA00040597307006CDC0240420F0001480421C7
:102DB000014B1847A0110020D12A0010014B9B683D
:102DC00018470000A0110020124A936F9B0815D2EB
:102DD0009066D166002905D0FFE7FFE7FFE7516F56
:102DE000106F704704B580210906C21751400028B2
:102DF00000D0C84317F0B0F9002104BDF0B5146E3F
:102E0000556E576F166FFFF7E3FF146655665767E9
:102E10001667F0BD000000D0114A936F9B0813D2D3
:102E200010665166002905D0FFE7FFE7FFE7516F05
:102E3000106F704704B5002801D00020C04317F080
:102E40008BF9002104BDC046F0B5146E556E576F66
:102E5000166FFFF7E5FF1466556657671667F0BDF6
:102E6000000000D094464A4A926F9208624601D20E
:102E700028E0C046F0B5464E346E756E776F366FFB
:102E800000F020F89446424A146655665767166764
:102E90006246F0BD94463E4A926F9208624601D265
:102EA00054E0C046F0B53A4E346E756E776F366FAB
:102EB00000F04CF89446364A146655665767166714
:102EC0006246F0BD002B24DB11D000293EDA00B5AC
:102ED000C943404200D1013100F038F8C9434042B3
:102EE00000D10131DB43524200D1013300BD002A41
:102EF000EBD1002801D1002905D00020C90FC90756
:102F000001D1C043410800B517F00EF9002200239B
:102F100000BD00B500290ADBDB43524200D101337A
:102F200000F014F8C943404200D1013100BDC9434B
:102F3000404200D10131DB43524200D1013300F065
:102F400005F8DB43524200D1013300BD002923D1F3
:102F5000002B18D1002A0CD0BC460D4F38667A667B
:102F600000210023FFE7FFE7FFE77A6F386F67462E
:102F70007047002801D00748010000B517F0D4F8C9
:102F80000022002300BD02000B000020002170473A
:102F9000000000D0FFFFFFFF002B00D0BFE0130CAC
:102FA00028D1002AE7D080B4114F39667A66FFE74E
:102FB000FFE730B4040C7B6F396F1B0423433B667F
:102FC0007A66FFE7FFE7FFE7C04684B27B6F3D6F9D
:102FD0001B0423433B667A66FFE7FFE7C0460023F6
:102FE0002C042D0C7A6F386F00196941B0BC704702
:102FF000000000D0F0B594460025140E01D1120255
:103000000835140F01D112010435940F01D192003B
:103010000235D40F01D152000135D40B0134254FB4
:103020007C66254C3C660E0C93B2FFE7FFE7FFE79A
:103030003C6F6643360C7703BE467343DF0B5B047D
:10304000C01AB941130C7343DB18C91ACE08664382
:10305000360CB64493B273431F0F1B01C01AB9411B
:10306000130C73431F0B1B05C01AB941860D8F0249
:103070003E436643360C092D24DB520A7243801A04
:103080007703460A6643360C16235B1BDE40DF409F
:10309000BF1964466643821B70460435063301003F
:1030A000D940A840C01900D30131A24206D2002362
:1030B000F0BD0000000000D0FFFFFFFF121B013039
:1030C000F3D3F1E709277F1BFE406446A2B27243A7
:1030D000801A00D20139220C7243130C1204821A96
:1030E00099410B007046043513370100F940A840A0
:1030F000801900D30131002B02D1A2420AD2F0BDC7
:10310000013000D30131121BFAD2013BF8D1A242A7
:1031100000D2F0BD013000D30131121BF7E7F0B54A
:103120001C0C00D080E00CB400251C0A04D11B024A
:10313000160E3343120208351C0B04D11B01160F67
:103140003343120104359C0B04D19B00960F33438B
:1031500092000235DC0B02D192185B4101351C0054
:10316000971864410134464F7C66464C3C660E0C11
:10317000FFE7FFE7FFE7C0463C6F6643360C770387
:10318000BE4697B27743C01B00D20139C01B00D2A4
:1031900001399FB27743C91BC91B170C77437E04C3
:1031A000FF0B801BB941CE086643360C0C2D33DB78
:1031B000B644120B1F053A431B0B97B27743C01B53
:1031C00000D201399FB27743C91B170C77433E04E5
:1031D0003F0C801BB941860D8F023E436643292771
:1031E0007F1BFE400C3D7746AF40BF1930BCA2B2FA
:1031F000ABB272437343801A9941220C7243130C91
:103200001204801A994102000B000137001BA941EA
:10321000F9D2781E0021F0BD0C277F1BFE407746B7
:103220007F0BAF40FF19E0E700245D1C07D0144F6F
:103230007D663966FFE7FFE7FFE7FFE73C6F95B282
:103240009EB265436643401BB141150C1E0C65439D
:10325000664336042F0C3E432D04401BB141994276
:1032600004D202000B0020000021F0BD01D19042E9
:10327000F7D3801A994101349942F2D3F6E700005E
:10328000000000D0FFFFFFFF48404140484018B415
:10329000134B5B68019308BD18B4114B1B68019375
:1032A00008BD94460F4A926F920805D2624618B440
:1032B0000B4BDB68019308BD0A4AF0B5146E556EDE
:1032C000576F166F6246FFF7F2FF064A146655669F
:1032D00057671667F0BD18B4014B9B68019308BD92
:1032E000481B0020000000D0FFB550404240504035
:1032F00059404B40594000E0FFB5154F4C00640D5C
:1033000003D0BC4204D10C0314D80020090D0905D8
:103310005C00640D03D0BC4204D11C030AD8002217
:103320001B0D1B0501264B4009D44B4003D58B4296
:1033300000D18242FFBD9942FCD19042FFBD0B43B8
:10334000DB1803431343F5D0C9434918FFBD000000
:10335000FF07000000B5FFF7CFFF804100BDC0466A
:1033600000B5FFF7C9FF01D9002000BD012000BD55
:1033700000B5FFF7B9FF01D9002000BD012000BD55
:1033800000B5FFF7B1FF804100BD012040054A00B4
:10339000121804D85A00121801D8002070470120D2
:1033A000704700000021002805D17047C117484030
:1033B000401AFAD0C90713B5064B1B6898470CBCD6
:1033C000441CA2401005120B0349091B09051943AF
:1033D000114310BD2CE300201F04000010B54C0069
:1033E000620D8023D218DB00D21A5B057E2A10DD25
:1033F0009E3A13DACC170903490819435242D140C7
:10340000640001341532202A05DAD04008436043B5
:1034100010BD002010BD0846604310BDC80FC01885
:10342000013810BD18B4024B5B6A019308BD00005F
:10343000481B002010B50148FEF74CF8ECA4011021
:10344000132370B51D78012D19D014DD1D48FFF729
:1034500037FB06001C48FFF733FB1C4C8022310071
:10346000200000F015F9022D06D01948FFF720FBC7
:10347000184B186070BD154C174BA364F5E7174B3C
:10348000124C23606360A360E36023616361A36106
:10349000E36123626362A362E36223636363A36302
:1034A000E36323646364A364E36423656365A365E2
:1034B000E36523666366A366E36623676367A367C2
:1034C000E367D9E75344000053460000481B00203F
:1034D0004C3300002CE30020E134001035340010A0
:1034E00007B5604601880A0A0230DF2AFAD1C9B25C
:1034F000820804D3028840880004104300E000687A
:10350000014A5050039007BD481B002051434343DC
:10351000C9188C46110C83B24B4310B4040C6143A0
:1035200092B280B2504362431C041B0C001910BCC1
:1035300059411304120CC0185141614470470000F6
:103540004840414048400E4B5B6818470C4B1B6895
:1035500018470C4A936F9B0802D2094BDB68184747
:10356000F0B5146E556E576F166FFFF7F6FF054AEC
:103570001466556657671667F0BD014B9B68184780
:1035800030E30020000000D0491A002808D1084686
:1035900070470000C10FC90700D54042002817D06E
:1035A000F44603B40B4B1B68984706BC81409E3819
:1035B0004042803107D20B0607D04900490AC005B6
:1035C0001043084360470130F8E7490A8902F5E7EC
:1035D000704700002CE30020014B5B6A1847000095
:1035E00030E3002010B50148FDF774FF50A401102E
:1035F000132310B51C781148FFF762FA012C0BD089
:1036000004DD010080220E4800F042F80D48FFF76B
:103610004FFA0D4B186010BD094C010054222000D8
:1036200000F036F822002000084980320368002BA1
:1036300000D1016004309042F8D1E7E75346000022
:1036400030E300204C3300002CE30020E53500106F
:1036500010B5040016F00AF8002804D0034B041932
:103660009C4200D810BD0248FDF734FF0000042042
:1036700004A5011001480421014B1847B011002096
:10368000D12A0010014B1B6818470000B011002020
:10369000014B5B6818470000B01100209A4200D22D
:1036A000885470477047C046F8B5DE4657464E46C8
:1036B0004546E0B599460D9B0700884693469B0713
:1036C00028D00B9B002B3CD016000B9C0A9D361972
:1036D000321B013C4B464146285DB847002CF7D1D0
:1036E00035000D9B9B070ED55B46EC1A0C9BA34245
:1036F00009D91E002A004B46414620200134B84714
:103700000135B442F6D32800F0BCBB46B246A94608
:10371000A046F8BD0B9B0C9A934214D213005D4651
:103720000C000B9A9E1A76192A004B46013521008F
:103730002020B847B542F7D10B9BA046002BC4D13F
:10374000E1E71500CDE75E46002BBED15D46DAE726
:10375000F0B54F46D6464646C0B584B09C460EAB43
:103760001F78129B9146BA460D9C109E119D9B0797
:103770004CD4002D41D1B44248D20123129F1F40A6
:10378000B8460C9B5F1E302303E001343B55A64234
:1037900001D9202CF9D14346002B00D187E00C9BA6
:1037A0005F1E3023A54204D830E001343B55AC42C3
:1037B0002CD0202CF9D1129BDB060DD5129B5B057A
:1037C00057D4A64267D0A54265D00F9B102B53D08B
:1037D000022B5BD0202C36D12023129C01930C9B12
:1037E0004A460093039463460295FFF75DFF04B0D9
:1037F000E0BCBA46B146A846F0BD0123129A134078
:103800009846012313422DD1B442BAD3129BDB0652
:103810001ED5129B5B05D8D4002CD2D10F9B102B48
:1038200060D00F9B022B71D0302301240C9A1370AF
:103830005346002B11D1129B5B0740D52B260C9AC7
:10384000631C1655C9E72300013430260C9AD65460
:10385000202CC1D05346002BEDD02D260C9A631C92
:103860001655BAE7002F34D0013DB44200D288E7A4
:1038700095E70F9B102BAFD1129B9B063CD5202CBC
:10388000AAD058230C9A13550134A3E7202CA3D0B7
:103890002300013407E0631E012CBFD00F9A102AC9
:1038A00036D0022AD1D162260C9AD65492E7129BC6
:1038B000DB06CDD5129B5B0500D482E785E7129A23
:1038C0002300160700D488E720260C9A01331655EA
:1038D00083E70C2313405F1EBB41ED1AB44200D2B4
:1038E0004FE75CE7129B9B060ED478230C9A0224C8
:1038F0001370302353709BE7202C00D16CE77823A2
:103900000C9A1355013465E75823EFE76033EDE770
:103910000C9AA61EB618129A920602D55822327038
:1039200093E77822327090E710B5002800D110BDDF
:1039300001F0DAFBFBE7C04610B5002803D04A6867
:103940000B681100984710BDF0B54E46DE4657464D
:103950004546E0B595B083468946924698461E9AFC
:103960001F9B10001900209EFFF70FFD002800D0BC
:10397000D2E11E981F990122C44B5242FFF7EAFC84
:10398000002800D001E11E981F990122C04B52422D
:10399000FFF7F6FC002800D0D6E01E981F99002201
:1039A000BC4BFFF7EDFC002800D0B5E01E981F9936
:1039B0000022B94BFFF7CEFC002800D0ACE01E98E7
:1039C0001F9900220023FFF7C5FC002800D0D1E09A
:1039D00000230B93229B5B0500D406260024302392
:1039E00006E006AA013417321355013E202C01D0FF
:1039F000092EF6D81E981F99FFF7F0FCA74BF2008E
:103A00009B180CCB050008920993FFF7CFFC02002E
:103A10000B001E981F99FFF73AFC089A099BFFF7C5
:103A20005AFC06900791FFF7FDFC0700FFF7BAFC70
:103A300002000B0006980799FFF729FC0022984B1B
:103A400006900791FFF79CFC002800D1E9E00137C0
:103A50003800FFF7A7FC02000B0008980999FFF750
:103A60007FFC002801D000270135002E00D1B7E0EF
:103A7000069513E0172306AA9B180A213800013483
:103A80001D19FFF7C9F93031297038000A21013EAC
:103A9000FFF7C2F9092F00D8E1E00700202CE9D197
:103AA000069D20240CAB0693172706ABFF180DE0EC
:103AB00028000A21FFF788F90134303128003955F0
:103AC0000A21FFF781F9051E00D1B7E0202CEFD1C4
:103AD0000323229A1340012B17D1219B002B14D0D2
:103AE0000B9B002B00D1E3E0219B013B2193202B7A
:103AF0000BD93023219A06E006A9013417310B5562
:103B0000944200D3A0E0202CF6D1229B0194039391
:103B1000219B0293069B21E0229B52460493219B0A
:103B20004946039358461E9B1F9C0296009301949E
:103B3000434600F043F90400200015B0F0BCBB463A
:103B4000B246A946A046F0BD229B5B070FD40322D4
:103B5000544B22990192039121990291009352466C
:103B6000434649465846FFF79FFD0400E4E7042218
:103B70004D4BEEE71E9A1F9B00200021FFF787FBAD
:103B800001231E901F910B9324E70223229A54468F
:103B90001A40229B06929B0700D1ACE02600434DC1
:103BA00008942F1F3200E87843464946013DD84724
:103BB0000136BD42F6D1089C069B0434002BBBD0D5
:103BC0005746219AE31B9A42B6D915002200434674
:103BD000494620200134D847E31BAB42F6D3ABE77C
:103BE0002800FFF7E3FB02000B001E981F99FFF768
:103BF0004EFB2B4B002206000F00FFF7ABFB0CAB7C
:103C00000693002800D04FE7002230003900244BF3
:103C1000FFF7B6FB002800D046E7012301359D439E
:103C200042E70022069807991D4BFFF793FB0028F7
:103C300000D01AE7002F59D1013716E70323229A43
:103C40001340012B00D1A6E0202C00D15DE70B9B97
:103C5000002B3AD02D23069A1355013455E7069DC3
:103C6000202C00D11DE73023361906E006AA0134C6
:103C700017321355202C00D113E7A642F6D12E237C
:103C80000CAA0134069293550EE7C046FFFFEFFFE2
:103C9000FFFFEF7F65CDCD4165CDCDC150D4011083
:103CA0000000E03F64A501105CA501106CA50110A7
:103CB0000C23229A134257D0219B013B2193A3420C
:103CC00000D916E7202C00D11FE7229B5B0704D503
:103CD0002B23069A1355013417E7229B1B0700D4A8
:103CE00013E72023069A135501340EE7FB0700D48F
:103CF000BBE60137B9E6219B042B00D84EE75546B9
:103D00004F46043CE4182A00434601353900202080
:103D1000D847AC42F7D141E70227229B55461F40C6
:103D20009B0726D006975F46234EEC1C2A00B078EE
:103D3000434649460135B847013EAC42F6D1069F9D
:103D4000002F00D1F8E65746219AE31B9A4200D88B
:103D5000F2E6150022004346494620200134D847A8
:103D6000E31BAB42F6D3E7E6219BA34200D9C0E6B2
:103D7000CBE6219B032BD5D9069754464F46033DEE
:103D8000ED1822004346013439002020D847A542CF
:103D9000F7D1069FC6E7219B002B00D154E70B9B70
:103DA000002B85D0219B013B21939C4200D2A0E6B1
:103DB000202C00D04EE7A8E668A50110F0B54546D6
:103DC000DE4657464E46E0B59BB0249C259D824674
:103DD00088469346994622002B0020002900FFF7D1
:103DE000D4FA002800D0C1E00122200029007C4B39
:103DF0005242FFF7C5FA002800D0B7E001222000A8
:103E00002900784B5242FFF7A5FA002800D0ADE018
:103E10000022002320002900FFF79CFA002800D090
:103E2000BBE108940995089809998023289ADB003A
:103E30001A400F928022289E1201164032000E96E0
:103E4000289E0F000A901E4200D0A4E00B000343FE
:103E500000D0CBE0002A00D012E2320006332693D5
:103E6000022313400C930223134200D00AE2279B43
:103E7000042B00D215E200270426043B0E930022F7
:103E8000002320002900FFF765FA002800D0C8E1D0
:103E9000554B289A134004930E9B0393269B029341
:103EA000089B099C0093019441464B465A46504654
:103EB000FFF74AFD02002020289B002503405942BD
:103EC0004B415B421840531C089341464B464530DA
:103ED000D047FB17FC185C40FB0F1F270A93731E8B
:103EE0000E930AABFF1806E020000A21FEF794FFAC
:103EF0000400202D08D00A212000FEF78DFF013597
:103F000030317955092CEFD8052306930E9B564680
:103F10000593002304930A3303930A9B41460293BB
:103F200012AB009330004B46089A0195FFF710FC46
:103F30000C9B002B28D05F46279BC41BA34223D990
:103F400082461D003A194B46414620200134B047B5
:103F5000A542F7D850465946279C421A0132002301
:103F6000944200D395E1013018180DE0289B00948D
:103F700001950493279B0393269B02934B465A4635
:103F800041465046FFF7E0FC1BB0F0BCBB46B246D2
:103F9000A946A046F0BD01432AD10E9B3200002B5A
:103FA00000D15DE70027269B0026BB4200DD82E1B1
:103FB0000022002320002900FFF7CCF9002800D0C0
:103FC0004BE1289B084A02961A408023DB001343EA
:103FD0000493279B0393089B099C00930194CDE7CE
:103FE000FFFFEF7FFFFFEFFFFFF7FFFF06232693A3
:103FF000B24B7800400DC018FFF7D8F9B04AB14B6A
:10400000FFF769F9B04AB14BFFF746F93F03B04BF0
:104010003F0B3B430C900D9100220A981900AD4BC9
:10402000FFF735F9AC4AAD4BFFF755F902000B002D
:104030000C980D99FFF730F9FFF7D0F90700FFF75B
:10404000B5F9A74AA74B0A900B91FFF744F9002254
:10405000A54BFFF721F9FFF7C1F9A44A06000A981A
:104060000B99A34BFFF737F90A900B913000FFF73C
:104070009DF9A04AA04BFFF72EF902000B000A9809
:104080000B99FFF704F902000B000A900B91FFF760
:1040900022F90C900D910A980B9902000B00FFF782
:1040A000FBF80022109011910C980D99934BFFF79B
:1040B000F8F80022924BFFF7EFF802000B000C9883
:1040C0000D99FFF7EEF800228E4BFFF7E5F802009E
:1040D0000B000C980D99FFF7E4F80A9A0B9B0C90D3
:1040E0000D9180210020C905FFF7D1F802000B00D7
:1040F0000C980D99FFF7D0F802000B001098119959
:10410000FFF7CFF80022724BFFF7C6F87E4B002274
:10411000F6183305FFF7DFF802000B000A900B9149
:1041200008980999FFF716F9002808D00A980B9902
:104130000022734BFFF7B5F80A900B91013F0A99E3
:104140000B9A0B0011003A006332C62A12D80222E1
:104150002898042610400E9A0C90002A26D1279BFE
:10416000042B05D9002800D0A1E0279B043B0E9327
:10417000042642E00222289810400E9A0C90002A51
:1041800013D1279B052B00D889E0002800D084E0BC
:10419000279B0526053B0E9332E080231B069C4699
:1041A000AC446346089409933DE605260B4300D1D1
:1041B000F9E608980999554A554BFFF7D9F80028B0
:1041C00008D0089809990022524BFFF7C3F800283D
:1041D00000D0E8E6269B002B34D00F9B002B31D07B
:1041E000269B013B2693279BB34204D90C9B002BB3
:1041F00059D002230C9300230E93002F00D13EE6EA
:104200000A9A0B9B08980999FFF74BF8002208902F
:104210000991002320002900FFF79CF8002800D115
:1042200036E6089C099D289A80203B4B00061340E7
:10423000220004930E9B0393269B02932B1800925B
:10424000019331E6279BB342D5D90C9B002B2AD092
:1042500000230E9302330C93CFE7289B2E4A802035
:10426000089C099D1A408023DB001343220004931D
:10427000279B000603932B180092019302967DE67C
:10428000052695E600230E930233002704260C939F
:10429000F5E54B1E1B191B1A65E602230C93052638
:1042A000AEE70423E7E5279B9B1B0E93A5E70223BC
:1042B00004260C93A1E7DB1B5E1E79E601FCFFFFE1
:1042C000FB799F501344D33FB3C8608B288AC63F05
:1042D0000000F03F0000F83F61436F63A787D23FC3
:1042E00071A379094F930A400000E03F1655B5BB12
:1042F000B16B0240EF39FAFE422EE63F00002C403F
:104300000000244000001840FF0300002D431CEB78
:10431000E2361A3F80842E41FFF7FFFFF0B5574683
:10432000DE464E464546E0B5A3B01F002C9B9246A4
:104330000C93C94AC94B8B460B901A60002900D1D7
:10434000BFE1002338789946002800D1C1E1C44B71
:104350004C460993C34B0E935B460A9308E0220038
:1043600053460A990B9DA84701343878002876D027
:1043700001372528F3D110239B46083B9946043B7F
:104380009846033B002602259C463878791C03009A
:10439000203BDBB2102B03D8099A9B00D3589F46D1
:1043A0000300303B092B36D900252A2800D1A7E08D
:1043B00000230D932E283FD00300683BDBB2122B65
:1043C0001BD80E9A9B00D3589F4663460F001E438E
:1043D000DBE70F002E43D8E743460F001E43D4E728
:1043E0005B460F001E43D0E74B460F001E43CCE751
:1043F000802378785B001E4301310F00672845D881
:104400002428ACD90300253BDBB2422BA7D8964920
:104410009B00CB589F460025AB005D196D002D1801
:1044200008780F000300303B303D0131092BF3D9F0
:1044300000230D932E28BFD1302280205242904677
:10444000C000064378780B0080444246092A00D811
:1044500051E12A2800D15EE10F000131ACE70A9B4F
:10446000A1469B46CA4503D801235B425344994663
:1044700053464A46594600200B9DA847200023B0CA
:10448000F0BCBB46B246A946A046F0BD0300693B5E
:10449000DBB20F2B00D962E7012199408846734AAD
:1044A00011408B46110042460A4200D013E10A2B0C
:1044B0002FD0072B00D052E70C9D01CD002800D152
:1044C00034E121231E43B0461F260D9A12ABF61885
:1044D000A14694465946340002E0000920290AD03A
:1044E0000F26064032003732092E00D8073A013134
:1044F00062540F28F1D863464C468B460D9322E157
:104500000C9B20CB002D52DB78780C930F000131EF
:104510004EE70C9B0D9904CB90469B46002900D199
:1045200028E1434618784144002801D100F029FCD5
:104530000D9A94460A0004E059780133002900D10D
:1045400095E19A42F8D163460D934346D31A0F93EF
:10455000730500D46CE10F9B0D9A934200D90F9222
:1045600002231A0032400C92334200D191E20C93A4
:104570000D9BB9461E1943461B1BA84622001F006F
:104580000B9D08E0541C53460A99A847385D002843
:1045900000D163E122009642F4D145464F463400F3
:1045A0000C9B002B00D097E15B460C93DDE60222CA
:1045B000787816430F006D420C930131F8E6787855
:1045C0006C2800D159E180235B001E43013114E7C0
:1045D00080239B0078781E4301310EE778786828A5
:1045E00000D150E1802301311E4306E7672800D146
:1045F000C2E0472800D134E1452800D134E1072149
:104600000C9B0D9A07338B43190004960395029275
:104610000CC90B98009201930C91220053460A9901
:10462000FFF7CCFB0400A0E6462800D1A8E0072154
:104630000C9B0D9A07338B43190004960395029245
:104640000CC90B98009201930C91220053460A99D1
:10465000FFF77AF9040088E61D430010E8370020D0
:10466000B4D20110F8D2011044D3011041900000DF
:104670002200534625200A990B9DA847013474E671
:104680000C9B04339B46631C9846B60700D4FFE09E
:104690000C9B220018780A9953460B9EB047641968
:1046A000012D00D849E245460B9EB8460A9F2A00D4
:1046B0005346013539002020B047A542F7D147467F
:1046C00072E7DB4B38780B9300239946002800D023
:1046D0003DE60024C6E66F2855D000D8BCE2102382
:1046E000782800D19EE09E430A239C4600230F9326
:1046F0000A339B464DE000218A00521852000133D4
:104700001118187830390200303A092AF4D90D917D
:104710001F00591C50E60C9BB87804CB0237D143DC
:10472000C9170A400D920C93791C45E610233000FE
:10473000984311331843802380463000DB00184033
:104740001E4200D1C0E643460693082305930D9B05
:104750002200049310230393002302935B460193EA
:104760001AAB00930A9953460B98FEF7F1FF0C958C
:104770000400FAE50139D4E680231B011E433EE71D
:1047800020231E4353E708239C4600230F9308333E
:104790009B4680233000DB0018401E4200D11AE106
:1047A0000D233100994380230A009B001A40914653
:1047B000194200D0C3E180230A005B001A409046F2
:1047C0000C9A04320F92194200D08FE24B0600D5AA
:1047D00097E10B0600D4E5E20C9B1B8899464B46FB
:1047E000002B00D005E210339943002800D100E2ED
:1047F000002398460D9B069104935B460393002388
:10480000059502934346D9E0582808D0622878D10C
:1048100002239C4600230F9302339B46B9E72023D3
:104820001E43103B9C4600230F9310339B46B0E77A
:1048300002231A0032400C92334200D105E20C935D
:104840004346B9460B9E0A9FA8461D1B22005346AD
:1048500039000134B047285D0028F7D145464F465E
:104860009EE680231B011E4320231E43C7E66246AB
:104870000D9242469B1A0F936AE6C0239B00B878BC
:104880001E43F91CB9E5C023B8781E43F91CB4E5F2
:10489000012D00D84AE1631E9946A9444B46524671
:1048A0002600A146BA461C001700A8460B9D320000
:1048B0003B00013620200A99A847A642F7D13B00C9
:1048C00057469A464C460C9B320018780A99534634
:1048D0000B9D4444A84767E6A0460F9B9D4200D825
:1048E00062E62C190B9E4546B8460A9FE41A2A0038
:1048F0005346013539002020B047A542F7D147463D
:1049000052E680233200DB001A4090461E4200D15E
:10491000F3E011218E43B4469846802362469B0003
:104920001A40934662461A4259D180235B001A40CE
:1049300091460C9A04320F9262461A4200D0A0E1CE
:1049400063465B0600D5D4E063461B0600D412E242
:104950000C9B00229B5ED8171918414089B2DA0FD0
:104960000C92002B00D187E188461F2612ABBB4674
:104970001495F71845464E46E046A14606E0280045
:104980000A21FEF749FA0500202E08D00A21280046
:10499000FEF742FA01363031B955092DEFD84C46B1
:1049A000C446B1465F46149D634606930D9B05952C
:1049B00004930A2303930C9B02934B4601931AAB77
:1049C000220000930A9953460B98FEF7C1FE0F9BF5
:1049D00004000C93C9E40C2331009943E3E6082258
:1049E000072191460C9B07338B4399444A460ACBD7
:1049F00008000C92DA0F9346184300D085E000239C
:104A000099464346002B2FD1002200231092119388
:104A100000231F26994612ABF6185B461495BB4639
:104A2000E04637000F934E46A146109C119D05E0CD
:104A3000A536001004000D00202E0CD00A22002301
:104A400020002900FEF726FA01363032BA55002D33
:104A5000F0D1092CEED80F9B109411955F464C466F
:104A6000C446B1469B46149D634606930D9B05952F
:104A700004930A2303935B4602934B4601931AABBC
:104A8000220000930A9953460B98FEF761FE04003A
:104A90006BE40F9B9D4200D896E18023DB000C93D2
:104AA0000F9B2E19F61A43460F930D9BA846994665
:104AB0005346BA461F000B9D22003B0001342020C4
:104AC0000A99A847B442F7D10F9B454698464B46F2
:104AD0000D933B0057469A4643461878002800D16C
:104AE00062E56B1C0F930C9B002B00D1A8E6002302
:104AF0003DE50C9B1B78190031E710239E43B4461B
:104B00000BE70C9B1B78994669E6DA171292139211
:104B10004A401092129813990A005A401192109A22
:104B2000119B121A8B411092119371E70C9B22007A
:104B300018780A9953460B9CA047444634E508224E
:104B4000072690460C9B0733B343984442460C9289
:104B50001A685B68149208931300089A134305D1EE
:104B60001033994300239846002838D161208B06E2
:104B700000D5412000231F2698465A4612ABF6184E
:104B8000030018920F9A0A3BB1461695179419978D
:104B90004446664690469B46149F089D159103E047
:104BA00007000D00202C13D032000023380029000C
:104BB000FEF770F95B46D2B2D318092A01D8130068
:104BC00030334A4601341355A845E9D1BE42E7D9EE
:104BD000189BA0469B461599169D179C199F0D9BE7
:104BE000069104935B460393002305950293434685
:104BF00044E761208B0600D541201F2612ABF21836
:104C000003000A3B0C934B464646A146A8461C00AF
:104C10005D461491BB46170002E00400202E0DD023
:104C200029002000FEF7F8F80C9BCB18092901D8C1
:104C30000B0030330136BB55AC42EED25F464C46DA
:104C4000AB4614994546B046D4E50F9B9D4200D92A
:104C500026E701330F93F3E5102332009A4394467D
:104C6000692800D0A2E080233200DB001A40904681
:104C70001E4200D151E64CE64346002B00D093E69D
:104C800073E60C9B1B68DA0F002B70D0D9175B18EA
:104C90004B4098461F2612ABF618A14614955C4669
:104CA0004546BB46E04637000C9206E028000A2144
:104CB000FEF7B2F80500202C08D00A212800FEF7E4
:104CC000ABF8013430313955092DEFD85F46C44671
:104CD000A3464C46149D0C9A634606930D9B05957E
:104CE00004930A23029203935B4667E60C9B1B68BE
:104CF0009846002B03D11033994300282DD1612011
:104D00008B0600D541201F2612ABF61803000A3B84
:104D10004A460C93149143463100A846A1465E468C
:104D20001400BB461D000F0002E00500202C0DD032
:104D300031002800FEF770F80C9BCB18092901D828
:104D40000B00303301343B55B542EED223005F46B1
:104D50004C464546B346994614990D9B06910493DB
:104D60005B4603930023059502934B4626E6434694
:104D7000002BB1D18EE70C9B1B68D8171918414046
:104D8000EDE580233200DB001A400F921E420FD067
:104D90000230020032400F92304219D00023A04668
:104DA0000F939AE50C9B1B68994618E516009BE447
:104DB00002231A0032400C92334200D08CE5002DC1
:104DC00000D06DE6FFF7F0FB01330F93FFF7D0FB48
:104DD0000C93F4E784460CB400B585B006AB0A002A
:104DE00002CB0548039300930B006146FFF796FA48
:104DF00005B008BC02B018479D36001000B585B05C
:104E00000391012102900093034813004A4202A932
:104E1000FFF784FA05B000BD3939001010B5094A12
:104E20000300146884B0002C08D0012200910648C9
:104E3000524203A9A047012004B010BD00F09EF922
:104E40000020F9E7E83700202939001000BEFDE70F
:104E5000094A1368002B06D008491818884208D858
:104E6000106018007047064B0449181813608842F8
:104E7000F6D901235B42F4E7B83300200000042098
:104E8000ACE4002010B5FFF7E1FFC04670B5FDF7B8
:104E90006FFE074D074EB54209D20024013E761B36
:104EA000B608013608CD01349847B442FAD170BD36
:104EB00044A201104CA20110030010B5080011001B
:104EC0001B68984710BDC046F8B5437D07000D002C
:104ED0001600002B38D0002A1ADD0B780A2B18D0C8
:104EE0000020012E09D0012421006B5C01340A2B23
:104EF0001AD0B442F8D1864203DD311A3B68281833
:104F00009847AD19013D2B780D3B5A4253413B75F3
:104F1000F8BD037D002BE3D102210E483B68984782
:104F2000012EEED00120DEE76B1E5B5C0D2BE0D086
:104F3000884203DA091A3B68281898470548022175
:104F40003B6898472000D4E7036811002800984781
:104F5000DEE7C046A0D40110F0B5C6460B680700D6
:104F60000D0000B5802B06D05A1C2A60ED182F7159
:104F700080BCB846F0BD0F4B1C68002C16D00B1D32
:104F800098460D4E02E02469002C0FD02368002BB8
:104F9000F9D03368002B01D0A342F4D12000414660
:104FA0002A68FFF791FF2469002CEFD1012200232A
:104FB000DBE7C046A8330020B4330020F0B54646F6
:104FC000D6464F46C0B582B090461C0006000D0084
:104FD000FDF7BAFB00232F4A12184B41002B02DACF
:104FE00001222D4B52422D4908008A4615F0E4F863
:104FF00081466B1C03D1300014F008FF0500002C23
:1050000027D0274F274B1C68002C18D04346002B75
:1050100021D1254B984602E02469002C0FD023684B
:10502000002BF9D043461B68002B01D09C42F3D1E2
:1050300020002A003100B8472469002CEFD14B46EC
:10504000002B23D1280002B0E0BCBA46B146A846E6
:10505000F0BD164FD6E7144B984602E02469002CA9
:10506000EDD02368002BF9D043461B68002B01D0FC
:10507000A342F3D12A0031002000B8476B460A2230
:105080002000DA71D91D093AB847E7E7504615F014
:1050900043F8D7E740420F00FFFFFF7F8018002052
:1050A000C94E0010A8330020B4330020B94E0010C0
:1050B0000A4A1368002B05D10CE01A001B69103254
:1050C000002B07D08342F8D1002902D11869106063
:1050D000196170470029FCD01060FAE7A83300205E
:1050E00010B500F0EBFA10BDF0B5CE46474680B5DE
:1050F00083B06B460600DD1D2870FDF725FB0023FD
:10510000194A12184B41002B02DA0122174B524266
:1051100017490800894615F04FF8164B80461C6861
:10512000002C14D0144F02E02469002C0FD0236807
:10513000002BF9D03B68002B01D09C42F4D1200019
:1051400001222900FFF7C0FE2469002CEFD143465D
:10515000002B05D1300003B0C0BCB946B046F0BD4D
:10516000484614F0D9FFF5E740420F00FFFFFF7FEC
:1051700080180020A8330020B433002070B504004C
:1051800014F044FE01230100050001222000FFF776
:1051900015FF084B1C68002C06D06368002B05D057
:1051A00098472469002CF8D1280070BD2469002C90
:1051B000F3D1F9E7A8330020F0B5CE46474680B5D5
:1051C000A3B004000E00FDF7BFFA0023264A121810
:1051D0004B41002B02DA0122244B5242244814F0A6
:1051E000EBFF00232200019380463300214801A9F0
:1051F000FFF704FE204F019B81463C68002B19D02D
:10520000002C2FD01D4E02E02469002C0FD0236803
:10521000002BF9D03368002B01D0A342F4D1200039
:10522000019A02A9FFF750FE2469002CEFD1002358
:105230003C680193002C06D06368002B0CD0984783
:105240002469002CF8D14346002B07D1484623B0EF
:10525000C0BCB946B046F0BD2469EBE7044814F081
:105260005BFFF3E70194EEE740420F00FFFFFF7F93
:1052700080180020594F0010A8330020B4330020BC
:105280000FB400B583B004A901C90191FFF794FFE1
:1052900003B008BC04B018477047C0460022014B59
:1052A0001A7070479DE400204B790020FF2B0BD132
:1052B0008B79002B08D1CB79012B05D1082A03D992
:1052C000024B8A7809301A707047C0469DE400206E
:1052D0000120704710B5012913D112495379107973
:1052E00009781B0203430020994200D010BD537877
:1052F000012B08D0022BF9D1642200210020FDF7F8
:1053000081FB0120F2E7D37891781B021943480A08
:10531000DB0501D4012040427F238A05D20F1940CA
:10532000FDF7F8FB9DE40020004870476CD50110A4
:105330009446012310B501290AD152780023012A8D
:1053400006D162461179527912020A43072A01D026
:10535000180010BDA6336146024A01F06BFA030043
:10536000F6E7C046C4D4011001230370004870471B
:10537000A4D401104B780A781B0213438A7810B525
:1053800012041A43CB781B0613439622D200934291
:1053900000D010BD0022012011004042FDF7BAFBF1
:1053A000024B1860024B19607047C046C0240020B1
:1053B000C424002010B5024B1878FCF7B1F910BDD9
:1053C0009EE40020154B70B51A68002A22D0EFF336
:1053D000108172B610680028FCD0BFF35F8F0020E8
:1053E0000F4A596010701B68BFF35F8F186081F31C
:1053F0001088002400250B4E3078FCF785F9002832
:1054000004D1002400252900200070BD3078FCF76D
:1054100087F9F8E7FA240025A400ECE708D3002078
:10542000A0E400209EE4002070B5050000200E00DE
:1054300001F018FB002834D0002001F029FB0028DF
:105440002FD0FDF781F90023174A12184B41002B8A
:1054500016DB164C200014F0AFFE002821D00020EF
:1054600001F000FB00280FD101200021404200F094
:1054700017FD03256D42200014F04EFE280070BD7C
:1054800001220B4B5242E4E7002001F001FB00280F
:10549000EAD029003200002001F004FB051EEAD109
:1054A000E7E703256D42E9E740420F0034E40020BE
:1054B000FFFFFF7F10B5FDF747F900230D4A1218D3
:1054C0004B41002B02DA01220B4B52420B4814F0E5
:1054D00073FE00280CD001200021404200F0E0FCC7
:1054E000002001F023FB0028F5D1044814F014FE3D
:1054F00010BDC04640420F00FFFFFF7F34E4002094
:10550000F8B5CE46474680B505000C00FDF71CF9FE
:105510000023344A12184B41002B02DA0122324B8D
:10552000524232490800884614F046FE002803D152
:10553000C0BCB946B046F8BD002001F093FA00287F
:1055400048D00026002C41DD294B994613E0A919CB
:10555000002001F027FB070001200021404200F05D
:105560009FFC002001F0E2FAFDF7EEF8204BF6195F
:1055700003C3B4422ADD002001F034FBA71B020064
:10558000B84200DD3A00002AE1D10120002140426A
:1055900000F086FC002001F0C9FA002001F062FA58
:1055A000002813D0002001F01DFB0028E1D1FDF7F9
:1055B000CBF84B460F000CCB002184460D48121847
:1055C0004B419F4202D8D4D19445D2D9404614F0E1
:1055D000A3FDADE700200021054B03C3404614F0B6
:1055E0009BFDA5E740420F00FFFFFF7F34E4002052
:1055F000181B002020A1070030B5002185B02848E5
:1056000014F0C2FD00281CD1264B1A68002A16D0BF
:10561000EFF3108172B610680028FCD0BFF35F8FE3
:1056200001242148596002781B68D2B20470BFF38C
:105630005F8F0020186081F31088002A17D005B012
:1056400030BD01200021404200F02AFC002001F082
:105650001FFA0500124814F05FFD002DEFD0134B28
:105660001B68002BEBD0124A10689847E7E7FCF75D
:1056700061FD0400FDF768F8FA2200239200121879
:105680004B41002B02DA01220A4B524201210291C6
:1056900000210191084920000091FCF74FFDCEE761
:1056A00034E4002008D30020A0E40020C02400201F
:1056B000C4240020FFFFFF7FC5530010D02310B586
:1056C0001B0684B01C68FCF735FDFCF735FEA042D4
:1056D00002D0002004B010BD284B002100201B7810
:1056E00001F068FD26480368002B44D00120FCF738
:1056F0009BFAFF23234C244920701840FCF728F81C
:1057000020780121FBF7EEFF0520FCF711F80028B7
:1057100024D1082200211D48FDF7B4FFFCF70AFD43
:105720000400FDF711F8FA220023920012184B41F1
:10573000002B02DA0122164B524201210291002174
:105740000191144920000091FCF7F8FC0028C0DB0F
:1057500011480121FFF7ACFC0120BBE70120FBF75A
:105760007FFF01000948FCF7DDFA002205200B4904
:10577000FCF718F8ECE7FCF7ABFAB7E72C5105108B
:1057800034E400209EE40020F955001008D30020E6
:10579000FFFFFF7FC5530010C0110020B55300105C
:1057A0000048704708D6011000487047B4D5011072
:1057B00010B5040016480378002B20D0002C06D129
:1057C000144B15484380063BFF3B038010BD052C5E
:1057D0001CD8124BA400E4580F480123811C013C43
:1057E00004E001330A800231142B0CD0E25C002A61
:1057F000F7D1C022DBB25B0092001343E5E7112131
:1058000000F01EF8DAE7CA239B00DEE70020DDE7A0
:1058100064E4002009040000C02E00209CD5011083
:1058200010B5024800F0FCF810BDC046F0E20020C0
:1058300010B508220149FDF72BFF10BDF0E2002052
:1058400030B5012900D1BBE0744B01391A7812112F
:1058500014003034092A00DDB5E00470012900D1BC
:10586000DAE00F221C78224014003034092A00D9D3
:10587000ACE04470022900D1CEE05A78944612116F
:1058800014003034092A00DDA3E08470032900D11C
:10589000C2E064460F22224014003034092A00D9A5
:1058A0009AE0C470042900D1B6E09A7894461211A7
:1058B00014003034092A00DD91E00471052900D17B
:1058C000AAE064460F22224014003034092A00D98D
:1058D00088E04471062900D19EE03025AC46DC7892
:1058E00022119444092A00DD7FE062468271072973
:1058F00000D191E00F22224014003034092A00D94F
:1059000077E0C471082900D186E03025AC461C79C7
:1059100022119444092A00DD6EE0624602720929D0
:1059200000D179E00F22224014003034092A67D8D0
:1059300044720A2900D16FE03025AC465C7922110F
:105940009444092A5FDC624682720B2964D00F22DC
:10595000224014003034092A59D8C4720C295BD073
:105960003025AC469C7922119444092A02DD073582
:10597000AC469444624602730D294DD00F2222405A
:1059800014003034092A01D93732140044730E2927
:1059900042D0DA7913111C003034092B01DD373382
:1059A0001C0084730F2937D00F2313401A0037329D
:1059B000092B01D830331A00C27310292CD01030B3
:1059C0000023037030BD3732140046E7373214002D
:1059D0004FE73732140058E73732140061E73732A7
:1059E00014006AE73732140073E70735AC46944475
:1059F0007BE73732140084E70735AC4694448CE7E4
:105A00003732140094E70735AC4694449BE73732AD
:105A10001400C4720C29A3D14018D1E7F0E2002091
:105A200010B588B004000D2200216846FDF72AFE5B
:105A30000D22002104A8FDF725FE4B236A46684687
:105A4000137004A90D2214F05FFB15210822200019
:105A50006944FDF71DFE08B010BDC046F8B500F062
:105A600047F90C23194DFF22AB6705201849FBF7B6
:105A700099FE184C402200212000FDF703FE40272C
:105A8000002301262121144A66702783A260136037
:105A900063545F31618445396354104A104963602F
:105AA000E2602787A1620B606362E26214F074FB1C
:105AB00080239B052E64EB6490230A4A0120EA5060
:105AC0008022094B5202DA64F8BDC0460000115032
:105AD000B9060020BC330020840010500001105093
